{
  "contractName": "Storage",
  "abi": [
    {
      "inputs": [
        {
          "internalType": "uint256",
          "name": "",
          "type": "uint256"
        }
      ],
      "name": "hashStorage",
      "outputs": [
        {
          "internalType": "bytes32",
          "name": "",
          "type": "bytes32"
        }
      ],
      "stateMutability": "view",
      "type": "function"
    },
    {
      "inputs": [
        {
          "internalType": "uint256",
          "name": "",
          "type": "uint256"
        }
      ],
      "name": "responsivaStorage",
      "outputs": [
        {
          "internalType": "string",
          "name": "Nombre",
          "type": "string"
        },
        {
          "internalType": "string",
          "name": "Apellido",
          "type": "string"
        },
        {
          "internalType": "string",
          "name": "Folio",
          "type": "string"
        },
        {
          "internalType": "bytes32",
          "name": "Firma",
          "type": "bytes32"
        },
        {
          "internalType": "bytes32",
          "name": "Selfie",
          "type": "bytes32"
        }
      ],
      "stateMutability": "view",
      "type": "function"
    },
    {
      "inputs": [
        {
          "internalType": "uint256",
          "name": "",
          "type": "uint256"
        }
      ],
      "name": "stringStorage",
      "outputs": [
        {
          "internalType": "string",
          "name": "",
          "type": "string"
        }
      ],
      "stateMutability": "view",
      "type": "function"
    },
    {
      "inputs": [
        {
          "internalType": "uint256",
          "name": "num",
          "type": "uint256"
        },
        {
          "internalType": "bytes32",
          "name": "hsx",
          "type": "bytes32"
        }
      ],
      "name": "storeHash",
      "outputs": [
        {
          "internalType": "bool",
          "name": "",
          "type": "bool"
        }
      ],
      "stateMutability": "nonpayable",
      "type": "function"
    },
    {
      "inputs": [
        {
          "internalType": "uint256",
          "name": "num",
          "type": "uint256"
        }
      ],
      "name": "getHash",
      "outputs": [
        {
          "internalType": "bytes32",
          "name": "",
          "type": "bytes32"
        }
      ],
      "stateMutability": "view",
      "type": "function"
    },
    {
      "inputs": [
        {
          "internalType": "uint256",
          "name": "num",
          "type": "uint256"
        },
        {
          "internalType": "string",
          "name": "nombre",
          "type": "string"
        },
        {
          "internalType": "string",
          "name": "apellido",
          "type": "string"
        },
        {
          "internalType": "string",
          "name": "folio",
          "type": "string"
        },
        {
          "internalType": "bytes32",
          "name": "firma",
          "type": "bytes32"
        },
        {
          "internalType": "bytes32",
          "name": "selfie",
          "type": "bytes32"
        }
      ],
      "name": "storeResponsiva",
      "outputs": [
        {
          "internalType": "bool",
          "name": "",
          "type": "bool"
        }
      ],
      "stateMutability": "nonpayable",
      "type": "function"
    },
    {
      "inputs": [
        {
          "internalType": "uint256",
          "name": "num",
          "type": "uint256"
        },
        {
          "internalType": "string",
          "name": "hsx",
          "type": "string"
        }
      ],
      "name": "storeString",
      "outputs": [
        {
          "internalType": "uint256",
          "name": "",
          "type": "uint256"
        }
      ],
      "stateMutability": "nonpayable",
      "type": "function"
    },
    {
      "inputs": [
        {
          "internalType": "uint256",
          "name": "num",
          "type": "uint256"
        }
      ],
      "name": "getString",
      "outputs": [
        {
          "internalType": "string",
          "name": "",
          "type": "string"
        }
      ],
      "stateMutability": "view",
      "type": "function"
    }
  ],
  "bytecode": "0x608060405234801561001057600080fd5b50610dac806100206000396000f3fe608060405234801561001057600080fd5b50600436106100885760003560e01c80636b2fafa91161005b5780636b2fafa9146103ea57806392728c3e1461042c578063b7c763b51461064b578063c65408b8146106f257610088565b80630b4bb73a1461008d5780633bb6eabe1461021a5780634618b42c146102f3578063556dd1ea14610343575b600080fd5b6100b9600480360360208110156100a357600080fd5b8101908080359060200190929190505050610734565b60405180806020018060200180602001868152602001858152602001848103845289818151815260200191508051906020019080838360005b8381101561010d5780820151818401526020810190506100f2565b50505050905090810190601f16801561013a5780820380516001836020036101000a031916815260200191505b50848103835288818151815260200191508051906020019080838360005b83811015610173578082015181840152602081019050610158565b50505050905090810190601f1680156101a05780820380516001836020036101000a031916815260200191505b50848103825287818151815260200191508051906020019080838360005b838110156101d95780820151818401526020810190506101be565b50505050905090810190601f1680156102065780820380516001836020036101000a031916815260200191505b509850505050505050505060405180910390f35b6102dd6004803603604081101561023057600080fd5b81019080803590602001909291908035906020019064010000000081111561025757600080fd5b82018360208201111561026957600080fd5b8035906020019184600183028401116401000000008311171561028b57600080fd5b91908080601f016020809104026020016040519081016040528093929190818152602001838380828437600081840152601f19601f820116905080830192505050505050509192919290505050610932565b6040518082815260200191505060405180910390f35b6103296004803603604081101561030957600080fd5b810190808035906020019092919080359060200190929190505050610966565b604051808215151515815260200191505060405180910390f35b61036f6004803603602081101561035957600080fd5b810190808035906020019092919050505061098a565b6040518080602001828103825283818151815260200191508051906020019080838360005b838110156103af578082015181840152602081019050610394565b50505050905090810190601f1680156103dc5780820380516001836020036101000a031916815260200191505b509250505060405180910390f35b6104166004803603602081101561040057600080fd5b8101908080359060200190929190505050610a3a565b6040518082815260200191505060405180910390f35b610631600480360360c081101561044257600080fd5b81019080803590602001909291908035906020019064010000000081111561046957600080fd5b82018360208201111561047b57600080fd5b8035906020019184600183028401116401000000008311171561049d57600080fd5b91908080601f016020809104026020016040519081016040528093929190818152602001838380828437600081840152601f19601f8201169050808301925050505050505091929192908035906020019064010000000081111561050057600080fd5b82018360208201111561051257600080fd5b8035906020019184600183028401116401000000008311171561053457600080fd5b91908080601f016020809104026020016040519081016040528093929190818152602001838380828437600081840152601f19601f8201169050808301925050505050505091929192908035906020019064010000000081111561059757600080fd5b8201836020820111156105a957600080fd5b803590602001918460018302840111640100000000831117156105cb57600080fd5b91908080601f016020809104026020016040519081016040528093929190818152602001838380828437600081840152601f19601f8201169050808301925050505050505091929192908035906020019092919080359060200190929190505050610a57565b604051808215151515815260200191505060405180910390f35b6106776004803603602081101561066157600080fd5b8101908080359060200190929190505050610b84565b6040518080602001828103825283818151815260200191508051906020019080838360005b838110156106b757808201518184015260208101905061069c565b50505050905090810190601f1680156106e45780820380516001836020036101000a031916815260200191505b509250505060405180910390f35b61071e6004803603602081101561070857600080fd5b8101908080359060200190929190505050610c39565b6040518082815260200191505060405180910390f35b6002602052806000526040600020600091509050806000018054600181600116156101000203166002900480601f0160208091040260200160405190810160405280929190818152602001828054600181600116156101000203166002900480156107e05780601f106107b5576101008083540402835291602001916107e0565b820191906000526020600020905b8154815290600101906020018083116107c357829003601f168201915b505050505090806001018054600181600116156101000203166002900480601f01602080910402602001604051908101604052809291908181526020018280546001816001161561010002031660029004801561087e5780601f106108535761010080835404028352916020019161087e565b820191906000526020600020905b81548152906001019060200180831161086157829003601f168201915b505050505090806002018054600181600116156101000203166002900480601f01602080910402602001604051908101604052809291908181526020018280546001816001161561010002031660029004801561091c5780601f106108f15761010080835404028352916020019161091c565b820191906000526020600020905b8154815290600101906020018083116108ff57829003601f168201915b5050505050908060030154908060040154905085565b60008160036000858152602001908152602001600020908051906020019061095b929190610c51565b506001905092915050565b60008160016000858152602001908152602001600020819055506001905092915050565b60036020528060005260406000206000915090508054600181600116156101000203166002900480601f016020809104026020016040519081016040528092919081815260200182805460018160011615610100020316600290048015610a325780601f10610a0757610100808354040283529160200191610a32565b820191906000526020600020905b815481529060010190602001808311610a1557829003601f168201915b505050505081565b600060016000838152602001908152602001600020549050919050565b6000808711610ace576040517f08c379a000000000000000000000000000000000000000000000000000000000815260040180806020018281038252601d8152602001807f4944207573756172696f206465626520736572206d61796f722061203000000081525060200191505060405180910390fd5b6040518060a0016040528087815260200186815260200185815260200184815260200183815250600260008981526020019081526020016000206000820151816000019080519060200190610b24929190610cd1565b506020820151816001019080519060200190610b41929190610cd1565b506040820151816002019080519060200190610b5e929190610cd1565b506060820151816003015560808201518160040155905050600190509695505050505050565b6060600360008381526020019081526020016000208054600181600116156101000203166002900480601f016020809104026020016040519081016040528092919081815260200182805460018160011615610100020316600290048015610c2d5780601f10610c0257610100808354040283529160200191610c2d565b820191906000526020600020905b815481529060010190602001808311610c1057829003601f168201915b50505050509050919050565b60016020528060005260406000206000915090505481565b828054600181600116156101000203166002900490600052602060002090601f016020900481019282601f10610c9257805160ff1916838001178555610cc0565b82800160010185558215610cc0579182015b82811115610cbf578251825591602001919060010190610ca4565b5b509050610ccd9190610d51565b5090565b828054600181600116156101000203166002900490600052602060002090601f016020900481019282601f10610d1257805160ff1916838001178555610d40565b82800160010185558215610d40579182015b82811115610d3f578251825591602001919060010190610d24565b5b509050610d4d9190610d51565b5090565b610d7391905b80821115610d6f576000816000905550600101610d57565b5090565b9056fea264697066735822122048a92370d7af85759a27fa3b8a99145812e0bad7f1101a4bf08fd9cdb18e650e64736f6c63430006000033",
  "source": "pragma solidity >=0.6.0 <0.7.0;\n\n/**\n * @title Storage\n * @dev Store & retrieve value in a variable\n */\ncontract Storage {\n\n    //Variables de contratos\n    address owner;\n\n    struct responsiva {\n        string Nombre ;\n        string Apellido;\n        string Folio;\n        bytes32 Firma;\n        bytes32 Selfie;\n    }\n    \n    mapping(uint256 => bytes32) public hashStorage;\n    mapping(uint256 => responsiva) public responsivaStorage;\n    mapping(uint256 => string) public stringStorage;\n\n    //constructor() public { owner = msg.sender; }\n    \n    // modifier onlyOwner {\n    //     require(\n    //         msg.sender == owner,\n    //         \"Only owner can call this function.\"\n    //     );\n    //     _;\n    // }\n    \n    /**\n     * @dev Store value in variable\n     * @param num value to store\n     */\n    function storeHash(uint256 num, bytes32 hsx) public returns (bool){\n        \n        hashStorage[num] = hsx;\n        \n        return true;\n    }\n\n    /**\n     * @dev Return value \n     * @return value of 'number'\n     */\n    function getHash(uint256 num) public view returns (bytes32){\n        return hashStorage[num];\n    }\n\n    function storeResponsiva(uint256 num, string memory nombre, string memory apellido, string memory folio, \n            bytes32 firma, bytes32 selfie) public returns (bool){\n\n        require(num > 0, 'ID usuario debe ser mayor a 0');\n        responsivaStorage[num] = responsiva(nombre, apellido, folio, firma, selfie);\n\n        return true;\n    }\n\n\n\n    function storeString(uint256 num, string memory hsx) public returns (uint256){\n        \n        stringStorage[num] = hsx;\n        \n        return 1;\n    }\n\n    /**\n     * @dev Return value \n     * @return value of 'number'\n     */\n    function getString(uint256 num) public view returns (string memory){\n        return stringStorage[num];\n    }\n    \n\n}\n",
  "sourcePath": "/Users/garvazsof/Projects/BPTech/contracts/Storage.sol",
  "compiler": {
    "name": "solc",
    "version": "0.6.0+commit.26b70077.Emscripten.clang"
  },
  "schemaVersion": "3.2.5",
  "updatedAt": "2020-09-26T22:18:50.245Z",
  "devdoc": {
    "details": "Store & retrieve value in a variable",
    "methods": {
      "getHash(uint256)": {
        "details": "Return value ",
        "returns": {
          "_0": "value of 'number'"
        }
      },
      "getString(uint256)": {
        "details": "Return value ",
        "returns": {
          "_0": "value of 'number'"
        }
      },
      "storeHash(uint256,bytes32)": {
        "details": "Store value in variable",
        "params": {
          "num": "value to store"
        }
      }
    },
    "title": "Storage"
  },
  "userdoc": {
    "methods": {}
  }
}